{
  "_format": "hh-sol-artifact-1",
  "contractName": "Libra",
  "sourceName": "contracts/Libra.sol",
  "abi": [
    {
      "inputs": [
        {
          "internalType": "address",
          "name": "_tokenContractAddress",
          "type": "address"
        },
        {
          "internalType": "address",
          "name": "_rowController",
          "type": "address"
        }
      ],
      "stateMutability": "nonpayable",
      "type": "constructor"
    },
    {
      "inputs": [
        {
          "internalType": "uint256",
          "name": "chainid",
          "type": "uint256"
        }
      ],
      "name": "ChainNotSupported",
      "type": "error"
    },
    {
      "anonymous": false,
      "inputs": [
        {
          "indexed": true,
          "internalType": "address",
          "name": "previousOwner",
          "type": "address"
        },
        {
          "indexed": true,
          "internalType": "address",
          "name": "newOwner",
          "type": "address"
        }
      ],
      "name": "OwnershipTransferred",
      "type": "event"
    },
    {
      "inputs": [
        {
          "internalType": "string",
          "name": "_title",
          "type": "string"
        },
        {
          "internalType": "string",
          "name": "_description",
          "type": "string"
        },
        {
          "internalType": "string",
          "name": "_accessfee",
          "type": "string"
        },
        {
          "internalType": "uint256",
          "name": "_cost",
          "type": "uint256"
        }
      ],
      "name": "createCommunity",
      "outputs": [],
      "stateMutability": "nonpayable",
      "type": "function"
    },
    {
      "inputs": [],
      "name": "getCommunitiesTableName",
      "outputs": [
        {
          "internalType": "string",
          "name": "",
          "type": "string"
        }
      ],
      "stateMutability": "view",
      "type": "function"
    },
    {
      "inputs": [],
      "name": "getFilesTableName",
      "outputs": [
        {
          "internalType": "string",
          "name": "",
          "type": "string"
        }
      ],
      "stateMutability": "view",
      "type": "function"
    },
    {
      "inputs": [
        {
          "internalType": "uint256",
          "name": "_id",
          "type": "uint256"
        }
      ],
      "name": "hasAccess",
      "outputs": [
        {
          "internalType": "bool",
          "name": "",
          "type": "bool"
        }
      ],
      "stateMutability": "view",
      "type": "function"
    },
    {
      "inputs": [
        {
          "internalType": "string",
          "name": "_title",
          "type": "string"
        },
        {
          "internalType": "string",
          "name": "_description",
          "type": "string"
        },
        {
          "internalType": "string",
          "name": "_files",
          "type": "string"
        },
        {
          "internalType": "string",
          "name": "_accessfee",
          "type": "string"
        },
        {
          "internalType": "address",
          "name": "_contract",
          "type": "address"
        }
      ],
      "name": "insertIntoCommunitiesTable",
      "outputs": [],
      "stateMutability": "nonpayable",
      "type": "function"
    },
    {
      "inputs": [
        {
          "internalType": "string",
          "name": "_type",
          "type": "string"
        },
        {
          "internalType": "string",
          "name": "_url",
          "type": "string"
        },
        {
          "internalType": "string",
          "name": "_hash",
          "type": "string"
        },
        {
          "internalType": "string",
          "name": "_title",
          "type": "string"
        },
        {
          "internalType": "string",
          "name": "_description",
          "type": "string"
        },
        {
          "internalType": "string",
          "name": "_tags",
          "type": "string"
        },
        {
          "internalType": "string",
          "name": "_access",
          "type": "string"
        },
        {
          "internalType": "string",
          "name": "_cost",
          "type": "string"
        },
        {
          "internalType": "string",
          "name": "_createdAt",
          "type": "string"
        }
      ],
      "name": "insertIntoTable",
      "outputs": [],
      "stateMutability": "nonpayable",
      "type": "function"
    },
    {
      "inputs": [
        {
          "internalType": "address",
          "name": "",
          "type": "address"
        },
        {
          "internalType": "address",
          "name": "",
          "type": "address"
        },
        {
          "internalType": "uint256",
          "name": "",
          "type": "uint256"
        },
        {
          "internalType": "bytes",
          "name": "",
          "type": "bytes"
        }
      ],
      "name": "onERC721Received",
      "outputs": [
        {
          "internalType": "bytes4",
          "name": "",
          "type": "bytes4"
        }
      ],
      "stateMutability": "pure",
      "type": "function"
    },
    {
      "inputs": [],
      "name": "owner",
      "outputs": [
        {
          "internalType": "address",
          "name": "",
          "type": "address"
        }
      ],
      "stateMutability": "view",
      "type": "function"
    },
    {
      "inputs": [
        {
          "internalType": "uint256",
          "name": "_id",
          "type": "uint256"
        }
      ],
      "name": "payForAccess",
      "outputs": [],
      "stateMutability": "nonpayable",
      "type": "function"
    },
    {
      "inputs": [],
      "name": "renounceOwnership",
      "outputs": [],
      "stateMutability": "nonpayable",
      "type": "function"
    },
    {
      "inputs": [
        {
          "internalType": "address",
          "name": "controller",
          "type": "address"
        }
      ],
      "name": "setAccessControl",
      "outputs": [],
      "stateMutability": "nonpayable",
      "type": "function"
    },
    {
      "inputs": [],
      "name": "tokenContract",
      "outputs": [
        {
          "internalType": "contract Prime",
          "name": "",
          "type": "address"
        }
      ],
      "stateMutability": "view",
      "type": "function"
    },
    {
      "inputs": [
        {
          "internalType": "address",
          "name": "newOwner",
          "type": "address"
        }
      ],
      "name": "transferOwnership",
      "outputs": [],
      "stateMutability": "nonpayable",
      "type": "function"
    },
    {
      "inputs": [
        {
          "internalType": "string",
          "name": "_title",
          "type": "string"
        },
        {
          "internalType": "string",
          "name": "_description",
          "type": "string"
        },
        {
          "internalType": "string",
          "name": "_tags",
          "type": "string"
        },
        {
          "internalType": "string",
          "name": "_access",
          "type": "string"
        },
        {
          "internalType": "string",
          "name": "_files",
          "type": "string"
        },
        {
          "internalType": "string",
          "name": "_createdAt",
          "type": "string"
        },
        {
          "internalType": "string",
          "name": "_id",
          "type": "string"
        }
      ],
      "name": "updateCommunitiesTable",
      "outputs": [],
      "stateMutability": "nonpayable",
      "type": "function"
    },
    {
      "inputs": [
        {
          "internalType": "string",
          "name": "_type",
          "type": "string"
        },
        {
          "internalType": "string",
          "name": "_url",
          "type": "string"
        },
        {
          "internalType": "string",
          "name": "_hash",
          "type": "string"
        },
        {
          "internalType": "string",
          "name": "_title",
          "type": "string"
        },
        {
          "internalType": "string",
          "name": "_description",
          "type": "string"
        },
        {
          "internalType": "string",
          "name": "_tags",
          "type": "string"
        },
        {
          "internalType": "string",
          "name": "_access",
          "type": "string"
        },
        {
          "internalType": "string",
          "name": "_cost",
          "type": "string"
        },
        {
          "internalType": "string",
          "name": "_createdAt",
          "type": "string"
        },
        {
          "internalType": "string",
          "name": "_id",
          "type": "string"
        }
      ],
      "name": "updateTable",
      "outputs": [],
      "stateMutability": "nonpayable",
      "type": "function"
    },
    {
      "inputs": [
        {
          "internalType": "string",
          "name": "_title",
          "type": "string"
        },
        {
          "internalType": "string",
          "name": "_description",
          "type": "string"
        },
        {
          "internalType": "string",
          "name": "_type",
          "type": "string"
        },
        {
          "internalType": "string",
          "name": "_url",
          "type": "string"
        },
        {
          "internalType": "string",
          "name": "_hash",
          "type": "string"
        },
        {
          "internalType": "string",
          "name": "_tags",
          "type": "string"
        },
        {
          "internalType": "string",
          "name": "_access",
          "type": "string"
        },
        {
          "internalType": "string",
          "name": "_fileCost",
          "type": "string"
        },
        {
          "internalType": "string",
          "name": "_createdAt",
          "type": "string"
        },
        {
          "internalType": "uint256",
          "name": "_cost",
          "type": "uint256"
        }
      ],
      "name": "uploadFile",
      "outputs": [],
      "stateMutability": "nonpayable",
      "type": "function"
    }
  ],
  "bytecode": "0x60806040908082523462000397578181620044a48038038091620000248285620003ce565b83398101031262000397576200003a81620003f2565b620000496020809301620003f2565b60008054336001600160a01b03198083168217845592946001600160a01b03948593909284929183167f8be0079c531659141344cd1fd0a4f28419497f9722a3daafe3b4186f6b6457e08980a316808460075416176007558360085416176008551690600954161760095580620000bf62000693565b1690845190620000cf826200039c565b60058252646c6962726160d81b8583015285516001600160401b039290919060c0830184811184821017620003425790620001bc918952608b84527f696420696e7465676572207072696d617279206b65792c6164647265737320749384898201527f6578742c7479706520746578742c75726c20746578742c6861736820746578748a8201527f2c7469746c6520746578742c6465736372697074696f6e20746578742c74616760608201527f7320746578742c61636365737320746578742c636f737420746578742c63726560808201526a185d1959105d081d195e1d60aa1b60a082015262000485565b938688518092818981620001e063a15ab08d60e01b9b8c8352306004840162000448565b03925af19081156200038d57869162000356575b506001556200020262000693565b169186519162000212836200039c565b60118352706c696272615f636f6d6d756e697469657360781b8784015287519160a0830190811183821017620003425792879492620002bd92620002d49897958b5260678252868201527f6578742c7469746c6520746578742c6465736372697074696f6e20746578742c8a8201527f66696c657320746578742c61636365737366656520746578742c636f6e74726160608201526618dd081d195e1d60ca1b608082015262000485565b918488518097819582948352306004840162000448565b03925af192831562000336578193620002fc575b50505060025551613c5f9081620008458239f35b9091809350813d83116200032e575b620003178183620003ce565b810103126200032b575051388080620002e8565b80fd5b503d6200030b565b508351903d90823e3d90fd5b634e487b7160e01b87526041600452602487fd5b90508681813d831162000385575b620003708183620003ce565b8101031262000381575138620001f4565b8580fd5b503d62000364565b88513d88823e3d90fd5b600080fd5b604081019081106001600160401b03821117620003b857604052565b634e487b7160e01b600052604160045260246000fd5b601f909101601f19168101906001600160401b03821190821017620003b857604052565b51906001600160a01b03821682036200039757565b6001600160401b038111620003b857601f01601f191660200190565b60005b838110620004375750506000910152565b818101518382015260200162000426565b909160609260018060a01b031682526040602083015262000479815180928160408601526020868601910162000423565b601f01601f1916010190565b90600046807a184f03e93ff9f4daa797ed6e38ed64bf6a1f0100000000000000008082101562000684575b506d04ee2d6d415b85acef81000000008082101562000676575b50662386f26fc100008082101562000668575b506305f5e100808210156200065a575b50612710808210156200064c575b5060648110156200063d575b600a8091101562000632575b600180840192816021620005446200052b8762000407565b966200053b6040519889620003ce565b80885262000407565b602087019790601f1901368937860101905b620005f9575b5050505091620005bb93603092620005f6946040519687946c021a922a0aa22902a20a126229609d1b6020870152620005a0815180926020602d8a01910162000423565b850191605f60f81b602d840152518093602e84019062000423565b01600560fb1b602e820152620005dc825180936020602f8501910162000423565b01602960f81b602f820152036010810184520182620003ce565b90565b600019019083906f181899199a1a9b1b9c1cb0b131b232b360811b8282061a8353049182156200062c5791908262000556565b6200055c565b916001019162000513565b60646002910492019162000507565b6004910492019138620004fb565b6008910492019138620004ed565b6010910492019138620004dd565b6020910492019138620004ca565b604093508204905038620004b0565b46600103620006b45773012969f7e3439a9b04025b5a049eb9bad82a8c1290565b46600a03620006d55773fad44bf5b843de943a09d4f3e84949a11d3aa3e690565b4661a4b103620006f757739abd75e8640871a5a20d3b4ee6330a04c962affd90565b4661a4ba036200071957731a22854c5b1642760a827f20137a67930ae108d290565b466089036200073a57735c4e6a9e5c1e1bf445a062006faf19ea6c49afea90565b4661013a036200075c577359ef8bf2d6c102b4c42aef9189e1a9f0abfd652d90565b4662aa36a7036200077f5773c50c62498448acc8dbde43da77f8d5d2e2c7597d90565b466101a403620007a15773c72e8a7be04f2469f8c2db3f1bdf69a7d516abba90565b4662066eed03620007c45773033f69e8d119205089ab15d340f5b797732f646b90565b466201388103620007e757734b48841d4b32c4650e4abc117a03fe8b51f38f6890565b466204cb2f036200080a5773030bcf3d50cad04c2e57391b12740982a930862190565b46617a69036200082c5773e7f1725e7734ce288f8367e1bb143e90bb3f051290565b60405163264e42cf60e01b8152466004820152602490fdfe608060408181526004803610156200001657600080fd5b600092833560e01c908163150b7a02146200108b5750806317fd89d0146200105057806319129e5a1462000f795780631cf1efa91462000ecb5780633132ddfe1462000e9e578063317808f81462000e4b5780634acbd1e41462000d3357806355a373d61462000d085780636892cca61462000b2a578063715018a61462000acc5780637ee72898146200094c5780638da5cb5b146200092257838163a329c2ec14620007c457508063bf262895146200055757838163c53c3f1a14620001b6575063f2fde38b14620000e857600080fd5b34620001b2576020366003190112620001b2576200010562001106565b906200011062001256565b6001600160a01b03918216928315620001605750506000548260018060a01b0319821617600055167f8be0079c531659141344cd1fd0a4f28419497f9722a3daafe3b4186f6b6457e0600080a380f35b906020608492519162461bcd60e51b8352820152602660248201527f4f776e61626c653a206e6577206f776e657220697320746865207a65726f206160448201526564647265737360d01b6064820152fd5b8280fd5b92905034620005535761014036600319011262000553576001600160401b039180358381116200054f57620001ef903690830162001209565b6024358481116200052f5762000209903690840162001209565b6044358581116200054b5762000223903690850162001209565b9060643586811162000547576200023e903690860162001209565b91608435878111620005435762000259903690870162001209565b9660a4358181116200053f5762000274903690880162001209565b9060c4358181116200053b576200028f903690890162001209565b60e4358281116200053757620002a99036908a0162001209565b90610104358381116200053357620002c59036908b0162001209565b92610124359081116200053357620002e19036908b0162001209565b97620002ed90620019dc565b95620002f990620019dc565b946200030590620019dc565b966200031190620019dc565b9a6200031d90620019dc565b936200032990620019dc565b906200033590620019dc565b916200034190620019dc565b926200034d90620019dc565b938a519b8c98888a99519081602080809d019201916200036d926200111d565b8a0197600b60fa1b98898b820152815191828c6021840192019162000392926200111d565b01886021820152815191828b60228401920191620003b0926200111d565b01876022820152815191828a60238401920191620003ce926200111d565b01866023820152815191828960248401920191620003ec926200111d565b018560248201528151918288602584019201916200040a926200111d565b0184602582015281519182876026840192019162000428926200111d565b0183602682015281519182866027840192019162000446926200111d565b01916027830152805180936028840192019162000463926200111d565b01036008810185526028016200047a9085620011cb565b620004853362001805565b6200049090620019dc565b906200049c9162001bd1565b926001600160a01b03620004af62001a20565b1690600154948591620004c1620012af565b92620004cd9362001c45565b90803b156200052f57620004fb94868094865197889586948593631bbd786d60e11b85523090850162001508565b03925af1908115620005265750620005105750f35b6200051b9062001169565b620005235780f35b80fd5b513d84823e3d90fd5b8580fd5b8c80fd5b8b80fd5b8a80fd5b8980fd5b8880fd5b8780fd5b8680fd5b8480fd5b5050fd5b509034620001b2576080366003190112620001b2576001600160401b0382358181116200054f576200058d903690850162001209565b906024358181116200052f57620005a8903690860162001209565b6044358281116200054b57620005c2903690870162001209565b60085485516001600160a01b0397929592918816611bd68083019087821184831017620007b157916200060391849362002054853933916064359162001f2c565b039089f08015620007a7578716888860095416823b15620007a357885190630c894f2d60e11b825284820152818160248183875af18015620007995762000781575b5050865163062f011f60e31b815289818481855afa95861562000777578a96620006f3575b505060209087519283809263032a2c5d60e41b82525afa958615620006ea57508795620006a2575b506200069f955062001e14565b80f35b9094506020813d8211620006e1575b81620006c060209383620011cb565b810103126200054b575194851685036200052f576200069f94933862000692565b3d9150620006b1565b513d89823e3d90fd5b909195503d808b843e620007088184620011cb565b8201916020818403126200053b5780519182116200053b57019080601f830112156200053f578151916200073c83620011ed565b916200074b8a519384620011cb565b838352602084830101116200053b576020926200076e918480850191016200111d565b9490386200066a565b88513d8c823e3d90fd5b6200078c9062001169565b6200054357883862000645565b89513d84823e3d90fd5b5080fd5b86513d8a823e3d90fd5b634e487b7160e01b8c526041855260248cfd5b92905034620005535760e036600319011262000553576001600160401b039180358381116200054f57620007fc903690830162001209565b926024358181116200052f5762000817903690840162001209565b906044358181116200054b5762000832903690850162001209565b9160643582811162000547576200084d903690860162001209565b608435838111620005435762000867903690870162001209565b60a4358481116200053f5762000881903690880162001209565b9160c4359485116200053f57620008f595620008d2620008cb620008cb620008cb620008cb620008c4620008bd8e620008d99d36910162001209565b9f620019dc565b99620019dc565b94620019dc565b9462001d4a565b93620008ef620008e93362001805565b620019dc565b62001bd1565b620004cd6001600160a01b036200090b62001a20565b169160025495866200091c620014d9565b62001c45565b505034620007a35781600319360112620007a357905490516001600160a01b039091168152602090f35b509034620001b2576020918260031936011262000a49576007548251636eb1769f60e11b815233818401523060248201528235926001600160a01b0392831692918681604481875afa908115620007a757889162000a99575b50848852818752600186892001541162000a5f5790606486928589528084528860018882209485541694015495885196879586946323b872dd60e01b86523390860152602485015260448401525af1801562000a555762000a17575b506200069f926003918552523390832062001f68565b8381813d831162000a4d575b62000a2f8183620011cb565b810103126200054f57518015150362000a49573862000a01565b8380fd5b503d62000a23565b83513d87823e3d90fd5b845162461bcd60e51b81529081018690526014602482015273082d8d8deeec2dcc6ca40dcdee840cadcdeeaced60631b6044820152606490fd5b90508681813d831162000ac4575b62000ab38183620011cb565b8101031262000547575138620009a5565b503d62000aa7565b8334620005235780600319360112620005235762000ae962001256565b600080546001600160a01b0319811682556001600160a01b03167f8be0079c531659141344cd1fd0a4f28419497f9722a3daafe3b4186f6b6457e08280a380f35b50919034620007a357610140366003190112620007a3576001600160401b0392803584811162000a495762000b63903690830162001209565b6024358581116200054f5762000b7d903690840162001209565b6044358681116200052f5762000b97903690850162001209565b916064358781116200054b5762000bb2903690860162001209565b91608435888111620005475762000bcd903690870162001209565b9160a435898111620005435762000be8903690880162001209565b9260c4358a81116200053f5762000c03903690890162001209565b9460e4358b81116200053b5762000c1e9036908a0162001209565b96610104358c8111620005375762000c3a9036908b0162001209565b9b610124356001600654019a8b600655670de0b6b3a76400009182810292818404149015171562000cf5578c5192838e019081118482101762000ce0578d5233835260208084019283528c8f52528b8d20915182546001600160a01b0319166001600160a01b03919091161782555160019190910155999a6200069f9a62000ccf98919791969195919491939192906200152e565b835260036020523390832062001f68565b604182634e487b7160e01b6000525260246000fd5b634e487b7160e01b8e526011905260248dfd5b505034620007a35781600319360112620007a35760075490516001600160a01b039091168152602090f35b838234620007a357610120366003190112620007a3576001600160401b03813581811162000a495762000d6a903690840162001209565b906024358181116200054f5762000d85903690850162001209565b6044358281116200052f5762000d9f903690860162001209565b6064358381116200054b5762000db9903690870162001209565b608435848111620005475762000dd3903690880162001209565b9060a435858111620005435762000dee903690890162001209565b9260c4358681116200053f5762000e099036908a0162001209565b9460e4358781116200053b5762000e249036908b0162001209565b96610104359081116200053b576200069f9962000e449136910162001209565b976200152e565b505034620007a35781600319360112620007a35762000e9a9062000e6e62001256565b62000e8662000e7c620012af565b60015490620012d2565b905191829160208352602083019062001142565b0390f35b5091346200052357602036600319011262000523575062000ec26020923562001fa6565b90519015158152f35b838234620007a35760a0366003190112620007a3576001600160401b03813581811162000a495762000f01903690840162001209565b916024358281116200054f5762000f1c903690830162001209565b916044358181116200052f5762000f37903690840162001209565b916064359182116200052f5762000f519136910162001209565b608435929091906001600160a01b038416840362000f74576200069f9462001e14565b600080fd5b50919034620007a3576020366003190112620007a35762000f9962001106565b9062000fa462001256565b6001600160a01b038062000fb762001a20565b169460015491863b156200052f57858451809881838162000fe88b638bb0ab9760e01b9a8b8452308b850162001f2c565b03925af1801562001046576200102f575b8596506200100662001a20565b1660025491813b156200054b57868094620004fb87519889968795869485523090850162001f2c565b9490956200103d9062001169565b93859062000ff9565b84513d88823e3d90fd5b505034620007a35781600319360112620007a35762000e9a906200107362001256565b62000e8662001081620014d9565b60025490620012d2565b92505034620001b2576080366003190112620001b257620010ab62001106565b506024356001600160a01b03811603620001b257606435906001600160401b03908183116200054f57366023840112156200054f5782013590811162000a495736910160240111620007a357630a85bd0160e11b8152602090f35b600435906001600160a01b038216820362000f7457565b60005b838110620011315750506000910152565b818101518382015260200162001120565b906020916200115d815180928185528580860191016200111d565b601f01601f1916010190565b6001600160401b0381116200117d57604052565b634e487b7160e01b600052604160045260246000fd5b604081019081106001600160401b038211176200117d57604052565b606081019081106001600160401b038211176200117d57604052565b90601f801991011681019081106001600160401b038211176200117d57604052565b6001600160401b0381116200117d57601f01601f191660200190565b81601f8201121562000f74578035906200122382620011ed565b92620012336040519485620011cb565b8284526020838301011162000f7457816000926020809301838601378301015290565b6000546001600160a01b031633036200126b57565b606460405162461bcd60e51b815260206004820152602060248201527f4f776e61626c653a2063616c6c6572206973206e6f7420746865206f776e65726044820152fd5b60405190620012be8262001193565b60058252646c6962726160d81b6020830152565b60226200135b91620012ef620012e8466200135e565b946200135e565b60405194826200130a8794518092602080880191016200111d565b830190605f60f81b918260208201526200132f8251809360206021850191016200111d565b019060218201526200134b82518093602087850191016200111d565b01036002810184520182620011cb565b90565b6000908072184f03e93ff9f4daa797ed6e38ed64bf6a1f0160401b80821015620014ca575b506d04ee2d6d415b85acef810000000080831015620014ba575b50662386f26fc1000080831015620014aa575b506305f5e100808310156200149a575b50612710808310156200148a575b50606482101562001479575b600a809210156200146e575b60019081602181860195620013fb87620011ed565b966200140b6040519889620011cb565b8088526200141c601f1991620011ed565b01366020890137860101905b62001435575b5050505090565b600019019083906f181899199a1a9b1b9c1cb0b131b232b360811b8282061a835304918215620014685791908262001428565b6200142e565b9160010191620013e6565b9190606460029104910191620013da565b60049193920491019138620013ce565b60089193920491019138620013c0565b60109193920491019138620013b0565b602091939204910191386200139d565b60409350810491503862001383565b60405190620014e88262001193565b60118252706c696272615f636f6d6d756e697469657360781b6020830152565b6200135b939260609260018060a01b031682526020820152816040820152019062001142565b93969594929392906001600160a01b036200154862001a20565b16986001549762001558620012af565b97620015643362001805565b6200156f90620019dc565b966200157b90620019dc565b936200158790620019dc565b956200159390620019dc565b976200159f90620019dc565b9a620015ab90620019dc565b94620015b790620019dc565b90620015c390620019dc565b91620015cf90620019dc565b92620015db90620019dc565b9460409b8c51998a98898b51809c60209d8e80809501920191620015ff926200111d565b8b01600b60fa1b998a83830152805180936021840192019162001622926200111d565b01886021820152815191828d6022840192019162001640926200111d565b01876022820152815191828c602384019201916200165e926200111d565b01866023820152815191828b602484019201916200167c926200111d565b01856024820152815191828a602584019201916200169a926200111d565b01846025820152815191828960268401920191620016b8926200111d565b01836026820152815191828860278401920191620016d6926200111d565b01826027820152815191828760288401920191620016f4926200111d565b0190602882015281519182856029840192019162001712926200111d565b0103600981018352602901620017299083620011cb565b84519060808201938285106001600160401b038611176200117d577f616464726573732c747970652c75726c2c686173682c7469746c652c646573638692620017ab968952604285528401527f72697074696f6e2c746167732c6163636573732c636f73742c637265617465648784015261105d60f21b606084015262001932565b833b1562000f7457620017d993600092838551809781958294631bbd786d60e11b8452306004850162001508565b03925af1908115620017fb5750620017ee5750565b620017f99062001169565b565b513d6000823e3d90fd5b604051906001600160a01b03166200181d82620011af565b602a825260209081830160403682378351156200191c576030905382516001908110156200191c57607860218501536029905b808211620018a657505062001863575090565b6064906040519062461bcd60e51b825280600483015260248201527f537472696e67733a20686578206c656e67746820696e73756666696369656e746044820152fd5b9091600f811660108110156200190757855184101562001907576f181899199a1a9b1b9c1cb0b131b232b360811b901a85840185015360041c918015620018f257600019019062001850565b60246000634e487b7160e01b81526011600452fd5b60246000634e487b7160e01b81526032600452fd5b634e487b7160e01b600052603260045260246000fd5b92620019466036926200135b9495620012d2565b906040519485926b024a729a2a92a1024a72a27960a51b602085015262001978815180926020602c880191016200111d565b8301600560fb1b602c8201526200199a825180936020602d850191016200111d565b0167052ac8298aa8aa6560c31b602d820152620019c28251809360206035850191016200111d565b01602960f81b6035820152036016810184520182620011cb565b6200135b60226040518093602760f81b9081602084015262001a098151809260206021870191016200111d565b8201906021820152036002810184520182620011cb565b4660010362001a415773012969f7e3439a9b04025b5a049eb9bad82a8c1290565b46600a0362001a625773fad44bf5b843de943a09d4f3e84949a11d3aa3e690565b4661a4b10362001a8457739abd75e8640871a5a20d3b4ee6330a04c962affd90565b4661a4ba0362001aa657731a22854c5b1642760a827f20137a67930ae108d290565b4660890362001ac757735c4e6a9e5c1e1bf445a062006faf19ea6c49afea90565b4661013a0362001ae9577359ef8bf2d6c102b4c42aef9189e1a9f0abfd652d90565b4662aa36a70362001b0c5773c50c62498448acc8dbde43da77f8d5d2e2c7597d90565b466101a40362001b2e5773c72e8a7be04f2469f8c2db3f1bdf69a7d516abba90565b4662066eed0362001b515773033f69e8d119205089ab15d340f5b797732f646b90565b46620138810362001b7457734b48841d4b32c4650e4abc117a03fe8b51f38f6890565b466204cb2f0362001b975773030bcf3d50cad04c2e57391b12740982a930862190565b46617a690362001bb95773e7f1725e7734ce288f8367e1bb143e90bb3f051290565b60405163264e42cf60e01b8152466004820152602490fd5b602c620017f99193929360405194859167616464726573733d60c01b602084015262001c088151809260206028870191016200111d565b8201600b60fa1b60288201526269643d60e81b602982015262001c3582518093602087850191016200111d565b0103600c810185520183620011cb565b9062001c5491939293620012d2565b9060405191602091828401928484106001600160401b038511176200117d576200135b94602c946040526000815291805162001d00575b5062001cf06040519687946602aa82220aa22960cd1b8487015262001cba815180928660278a0191016200111d565b85016401029a2aa160dd1b602782015262001cde82518093868a850191016200111d565b0191835193849187850191016200111d565b0103600c810184520182620011cb565b90915062001d4260276040518093660102ba422a922960cd1b8683015262001d31815180928886860191016200111d565b8101036007810184520182620011cb565b903862001c8b565b9062001e04602594979692620017f996604051998a96835162001d768160209687808d0191016200111d565b880195600b60fa1b96878682015262001d9982518093886021850191016200111d565b0186602182015262001db582518093876022850191016200111d565b0185602282015262001dd182518093866023850191016200111d565b0184602382015262001ded82518093856024850191016200111d565b01926024840152835193849187850191016200111d565b01036005810185520183620011cb565b9293919262001ede9262001e8291906001600160a01b0362001e3562001a20565b16966002549662001e45620014d9565b95620008d2620008e962001e7b62001e7462001e7462001e7462001e6d620008e93362001805565b9a620019dc565b95620019dc565b9562001805565b90836040519162001e9383620011af565b603283527f616464726573732c7469746c652c6465736372697074696f6e2c66696c65732c6020840152711858d8d95cdcd999594b18dbdb9d1c9858dd60721b604084015262001932565b823b1562000f745762001f0d9260009283604051809681958294631bbd786d60e11b8452306004850162001508565b03925af1801562001f2057620017ee5750565b6040513d6000823e3d90fd5b6001600160a01b0391821681526020810192909252909116604082015260600190565b80548210156200191c5760005260206000200190600090565b8054600160401b8110156200117d5762001f889160018201815562001f4f565b819291549060031b9160018060a01b03809116831b921b1916179055565b600081815260046020908082526001916040838186200154156200204a5790919293948486905b62001fdc575b50505050505090565b8187526003808552838820805483101562002042578262001ffd9162001f4f565b9054911b1c6001600160a01b0316331462002038576000198114620020255785018562001fcd565b634e487b7160e01b875260118552602487fd5b5050505050905090565b505062001fd3565b5050509150509056fe608060409080825234620004d65760608162001bd68038038091620000258285620004db565b833981010312620004d6576200003b8162000515565b90602091620000508484840151930162000515565b60008054336001600160a01b03198083168217845592946001600160a01b0394939285929083167f8be0079c531659141344cd1fd0a4f28419497f9722a3daafe3b4186f6b6457e08880a316816003541617600355600194855560025468010000000000000000811015620004ae5785810180600255811015620004c25783906002865287862001921690825416179055620000eb6200056b565b855191166001600160401b0382870181811184821017620004ae578752600f8352858301906e6c696272615f636f6d6d756e69747960881b825287519060a0820190828210908211176200049a5791889188959493835260758152858101907f696420696e7465676572207072696d617279206b65792c61646472657373207482527f6578742c7479706520746578742c75726c20746578742c686173682074657874848201527f2c7469746c6520746578742c6465736372697074696f6e20746578742c74616760608201527f7320746578742c637265617465644174207465787400000000000000000000006080820152468089917a184f03e93ff9f4daa797ed6e38ed64bf6a1f010000000000000000808210156200048c575b50896d04ee2d6d415b85acef8100000000808410156200047d575b5050662386f26fc10000808310156200046d575b506305f5e100808310156200045d575b50612710808310156200044d575b5060648210156200043c575b8b600a8093101562000431575b839c919c016200027e816200052a565b9751976200028d9089620004db565b8088526200029b906200052a565b9b818b890194601f199e8f013687378901602101905b620003f8575b505050508b51948594898601986c021a922a0aa22902a20a126229609d1b8a52519081602d8801620002e99262000546565b850190602d8201605f60f81b9052519182602e8301620003099262000546565b0190602e8201600560fb1b9052519182602f8301620003289262000546565b01602f8101602960f81b9052036010810182526030016200034a9082620004db565b84885180978195829463a15ab08d60e01b84523060048501528c602485015251908160448501528160648501620003819262000546565b601f0116810103606401925af1928315620003ec578193620003b2575b505050600455516114b990816200071d8239f35b9091809350813d8311620003e4575b620003cd8183620004db565b81010312620003e15750513880806200039e565b80fd5b503d620003c1565b508351903d90823e3d90fd5b600019019083906f181899199a1a9b1b9c1cb0b131b232b360811b8282061a8353049182156200042b57919082620002b1565b620002b7565b909201918b6200026e565b919060646002910491019162000261565b6004919392049101913862000255565b6008919392049101913862000247565b6010919392049101913862000237565b93019290910490893862000223565b879350810491503862000208565b634e487b7160e01b86526041600452602486fd5b634e487b7160e01b85526041600452602485fd5b634e487b7160e01b85526032600452602485fd5b600080fd5b601f909101601f19168101906001600160401b03821190821017620004ff57604052565b634e487b7160e01b600052604160045260246000fd5b51906001600160a01b0382168203620004d657565b6001600160401b038111620004ff57601f01601f191660200190565b60005b8381106200055a5750506000910152565b818101518382015260200162000549565b466001036200058c5773012969f7e3439a9b04025b5a049eb9bad82a8c1290565b46600a03620005ad5773fad44bf5b843de943a09d4f3e84949a11d3aa3e690565b4661a4b103620005cf57739abd75e8640871a5a20d3b4ee6330a04c962affd90565b4661a4ba03620005f157731a22854c5b1642760a827f20137a67930ae108d290565b466089036200061257735c4e6a9e5c1e1bf445a062006faf19ea6c49afea90565b4661013a0362000634577359ef8bf2d6c102b4c42aef9189e1a9f0abfd652d90565b4662aa36a703620006575773c50c62498448acc8dbde43da77f8d5d2e2c7597d90565b466101a403620006795773c72e8a7be04f2469f8c2db3f1bdf69a7d516abba90565b4662066eed036200069c5773033f69e8d119205089ab15d340f5b797732f646b90565b466201388103620006bf57734b48841d4b32c4650e4abc117a03fe8b51f38f6890565b466204cb2f03620006e25773030bcf3d50cad04c2e57391b12740982a930862190565b46617a6903620007045773e7f1725e7734ce288f8367e1bb143e90bb3f051290565b60405163264e42cf60e01b8152466004820152602490fdfe60406080815260048036101561001457600080fd5b600091823560e01c8062b16fee146107c457806319129e5a14610747578063317808f81461070657806332a2c5d0146106eb578063545539c2146106cf57806355a373d6146106a65780635daf08ca14610665578063715018a61461060b5780638512f650146101f25780638da5cb5b146101ca578063bf9c1d31146101a6578063d02982cf1461017c5763f2fde38b146100ae57600080fd5b34610178576020366003190112610178576001600160a01b03823581811693919290849003610174576100df6109de565b83156101225750506000548260018060a01b0319821617600055167f8be0079c531659141344cd1fd0a4f28419497f9722a3daafe3b4186f6b6457e0600080a380f35b906020608492519162461bcd60e51b8352820152602660248201527f4f776e61626c653a206e6577206f776e657220697320746865207a65726f206160448201526564647265737360d01b6064820152fd5b8480fd5b8280fd5b8382346101a257816003193601126101a257602090610199611420565b90519015158152f35b5080fd5b83346101c7576101c46101b8366108f5565b95949094939193610c75565b80f35b80fd5b8382346101a257816003193601126101a257905490516001600160a01b039091168152602090f35b508290346101a2576101003660031901126101a2576001600160401b039083358281116106075761022690369086016108a9565b916024358181116101745761023e90369087016108a9565b9060443581811161058f5761025690369088016108a9565b6064358281116106035761026d90369089016108a9565b6084358381116105ff576102849036908a016108a9565b9360a4358481116105fb5761029c9036908b016108a9565b9460c4358581116105f7576102b49036908c016108a9565b60e4358681116105f3576102cb9036908d016108a9565b986102d590611046565b926102df90611046565b946102e990611046565b936102f390611046565b916102fd90611046565b9661030790611046565b9061031190611046565b90885197889360209687808701888199519283910191610330926107e1565b860198600b60fa1b998a8a820152815191828b60218401920191610353926107e1565b01896021820152815191828a6022840192019161036f926107e1565b0188602282015281519182896023840192019161038b926107e1565b018760238201528151918288602484019201916103a7926107e1565b018660248201528151918287602584019201916103c3926107e1565b018560258201528151918286602684019201916103df926107e1565b01036006810186526026016103f4908661086d565b6103fd33610f39565b61040690611046565b9286519788918483019567616464726573733d60c01b8752805190818760288701920191610433926107e1565b8301906028820152602981016269643d60e81b90528151918286602c840192019161045d926107e1565b0103600c81018852602c01610472908861086d565b6001600160a01b03610482611086565b169489549788610490610a36565b9061049a91610a71565b88519096858201908111828210176105de579361051997938c9d99979361053997938e602c988e528152948c8251610593575b905061052a9392915051998a966602aa82220aa22960cd1b868901526104fc815180928860278c0191016107e1565b8701916401029a2aa160dd1b6027840152518093898401906107e1565b0191835193849187850191016107e1565b0103600c81018552018361086d565b803b1561058f5761056394868094865197889586948593631bbd786d60e11b855230908501610c51565b03925af190811561058657506105765750f35b61057f90610829565b6101c75780f35b513d84823e3d90fd5b8580fd5b61052a949396506105c4926105d49260279251948592660102ba422a922960cd1b8a850152518092858501906107e1565b810103600781018452018261086d565b9390918f8c6104cd565b60418d634e487b7160e01b6000525260246000fd5b8a80fd5b8980fd5b8880fd5b8780fd5b8680fd5b8380fd5b83346101c757806003193601126101c7576106246109de565b600080546001600160a01b0319811682556001600160a01b03167f8be0079c531659141344cd1fd0a4f28419497f9722a3daafe3b4186f6b6457e08280a380f35b5090346101785760203660031901126101785735916002548310156101c757506106906020926109ad565b905491519160018060a01b039160031b1c168152f35b8382346101a257816003193601126101a25760035490516001600160a01b039091168152602090f35b83346101c7576101c46106e1366108f5565b9592909493610c75565b8382346101a257816003193601126101a25760209051308152f35b5082346101c757806003193601126101c7575061073061074392610728610a36565b905490610a71565b9051918291602083526020830190610804565b0390f35b5034610178576020366003190112610178576001600160a01b03823581811693859290918590036101785761077a611086565b16815491813b15610607578360649286519788958694638bb0ab9760e01b86523090860152602485015260448401525af190811561058657506107bb575080f35b6101c490610829565b8382346101a257816003193601126101a257602090610199611268565b60005b8381106107f45750506000910152565b81810151838201526020016107e4565b9060209161081d815180928185528580860191016107e1565b601f01601f1916010190565b6001600160401b03811161083c57604052565b634e487b7160e01b600052604160045260246000fd5b606081019081106001600160401b0382111761083c57604052565b90601f801991011681019081106001600160401b0382111761083c57604052565b6001600160401b03811161083c57601f01601f191660200190565b81601f820112156108f0578035906108c08261088e565b926108ce604051948561086d565b828452602083830101116108f057816000926020809301838601378301015290565b600080fd5b9060e06003198301126108f0576001600160401b0390600480358381116108f057846109229183016108a9565b936024358481116108f057816109399184016108a9565b936044358181116108f057826109509185016108a9565b936064358281116108f057836109679186016108a9565b936084358381116108f0578461097e9183016108a9565b9360a4358481116108f057816109959184016108a9565b9360c4359081116108f0576109aa92016108a9565b90565b6002548110156109c857600260005260206000200190600090565b634e487b7160e01b600052603260045260246000fd5b6000546001600160a01b031633036109f257565b606460405162461bcd60e51b815260206004820152602060248201527f4f776e61626c653a2063616c6c6572206973206e6f7420746865206f776e65726044820152fd5b60405190604082018281106001600160401b0382111761083c57604052600f82526e6c696272615f636f6d6d756e69747960881b6020830152565b60226109aa91610a89610a8346610aee565b94610aee565b6040519482610aa28794518092602080880191016107e1565b830190605f60f81b91826020820152610ac58251809360206021850191016107e1565b01906021820152610adf82518093602087850191016107e1565b0103600281018452018261086d565b6000908072184f03e93ff9f4daa797ed6e38ed64bf6a1f0160401b80821015610c43575b506d04ee2d6d415b85acef810000000080831015610c34575b50662386f26fc1000080831015610c25575b506305f5e10080831015610c16575b5061271080831015610c07575b506064821015610bf7575b600a80921015610bed575b60019081602181860195610b828761088e565b96610b90604051988961086d565b808852610b9f601f199161088e565b01366020890137860101905b610bb7575b5050505090565b600019019083906f181899199a1a9b1b9c1cb0b131b232b360811b8282061a835304918215610be857919082610bab565b610bb0565b9160010191610b6f565b9190606460029104910191610b64565b60049193920491019138610b59565b60089193920491019138610b4c565b60109193920491019138610b3d565b60209193920491019138610b2b565b604093508104915038610b12565b6109aa939260609260018060a01b0316825260208201528160408201520190610804565b929593919290916001600160a01b03610c8c611086565b169660045495610c9a610a36565b94610ca433610f39565b610cad90611046565b94610cb790611046565b90610cc190611046565b96610ccb90611046565b92610cd590611046565b93610cdf90611046565b98610ce990611046565b91610cf390611046565b916040998a519586956020809b81808a018c819d519283910191610d16926107e1565b890196600b60fa1b978884820152815191828560218401920191610d39926107e1565b01908760218301528051809360228401920191610d55926107e1565b01856022820152815191828d60238401920191610d71926107e1565b01846023820152815191828c60248401920191610d8d926107e1565b01836024820152815191828b60258401920191610da9926107e1565b01826025820152815191828a60268401920191610dc5926107e1565b01906026820152815191828860278401920191610de1926107e1565b0103600781018252602701610df6908261086d565b855192610e0284610852565b60368452848401907f616464726573732c747970652c75726c2c686173682c7469746c652c64657363825286888601751c9a5c1d1a5bdb8b1d1859dccb18dc99585d1959105d60521b9052610e5691610a71565b87516b024a729a2a92a1024a72a27960a51b8782015281519096879692610e84918391602c8a0191016107e1565b850190602c8201600560fb1b9052519182602d8301610ea2926107e1565b0190602d820167052ac8298aa8aa6560c31b905251918260358301610ec6926107e1565b0160358101602960f81b905203601681018252603601610ee6908261086d565b833b156108f057610f1193600092838551809781958294631bbd786d60e11b84523060048501610c51565b03925af1908115610f2f5750610f245750565b610f2d90610829565b565b513d6000823e3d90fd5b604051906001600160a01b0316610f4f82610852565b602a825260209081830160403682378351156109c8576030905382516001908110156109c857607860218501536029905b808211610fd4575050610f91575090565b6064906040519062461bcd60e51b825280600483015260248201527f537472696e67733a20686578206c656e67746820696e73756666696369656e746044820152fd5b9091600f81166010811015611031578551841015611031576f181899199a1a9b1b9c1cb0b131b232b360811b901a85840185015360041c91801561101c576000190190610f80565b60246000634e487b7160e01b81526011600452fd5b60246000634e487b7160e01b81526032600452fd5b6109aa60226040518093602760f81b908160208401526110708151809260206021870191016107e1565b820190602182015203600281018452018261086d565b466001036110a65773012969f7e3439a9b04025b5a049eb9bad82a8c1290565b46600a036110c65773fad44bf5b843de943a09d4f3e84949a11d3aa3e690565b4661a4b1036110e757739abd75e8640871a5a20d3b4ee6330a04c962affd90565b4661a4ba0361110857731a22854c5b1642760a827f20137a67930ae108d290565b4660890361112857735c4e6a9e5c1e1bf445a062006faf19ea6c49afea90565b4661013a03611149577359ef8bf2d6c102b4c42aef9189e1a9f0abfd652d90565b4662aa36a70361116b5773c50c62498448acc8dbde43da77f8d5d2e2c7597d90565b466101a40361118c5773c72e8a7be04f2469f8c2db3f1bdf69a7d516abba90565b4662066eed036111ae5773033f69e8d119205089ab15d340f5b797732f646b90565b4662013881036111d057734b48841d4b32c4650e4abc117a03fe8b51f38f6890565b466204cb2f036111f25773030bcf3d50cad04c2e57391b12740982a930862190565b46617a69036112135773e7f1725e7734ce288f8367e1bb143e90bb3f051290565b60405163264e42cf60e01b8152466004820152602490fd5b600254600160401b81101561083c5780600161124a92016002556109ad565b819291549060031b9160018060a01b03809116831b921b1916179055565b600354604080516370a0823160e01b81523360048201526020926001600160a01b03919084908290602490829086165afa908115611415576000916113e8575b50600154809111156113a9571561139d5760015490816112d5575b505050506112d03361122b565b600190565b600091606485926003541691855194859384926323b872dd60e01b845233600485015230602485015260448401525af19081156113925760009161135c575b50156113215780806112c3565b60649250519062461bcd60e51b825260048201526015602482015274151bdad95b881d1c985b9cd9995c8819985a5b1959605a1b6044820152fd5b8381813d831161138b575b611371818361086d565b810103126101a257519081151582036101c7575038611314565b503d611367565b82513d6000823e3d90fd5b5050506112d03361122b565b825162461bcd60e51b8152600481018590526018602482015277446f6e2774206861766520656e6f75676820746f6b656e7360401b6044820152606490fd5b908482813d831161140e575b6113fe818361086d565b810103126101c7575051386112a8565b503d6113f4565b83513d6000823e3d90fd5b60025460005b818110611434575050600090565b61143d816109ad565b905460039190911b1c6001600160a01b0316331461147c57600019811461146657600101611426565b634e487b7160e01b600052601160045260246000fd5b505060019056fea2646970667358221220bc0325545903f6bfdecb63ee1ed351dfd0915b317f244a7120be41dd98e4462c64736f6c63430008130033a264697066735822122004fae46818342dde3c5a7a0d9d0049179440e5faebd515b5dbeb8ad0b28e791464736f6c63430008130033",
  "linkReferences": {},
  "deployedLinkReferences": {}
}